{
  "contractName": "CoinFlip",
  "abi": [
    {
      "constant": true,
      "inputs": [],
      "name": "consecutiveWins",
      "outputs": [
        {
          "name": "",
          "type": "uint256"
        }
      ],
      "payable": false,
      "stateMutability": "view",
      "type": "function"
    },
    {
      "inputs": [],
      "payable": false,
      "stateMutability": "nonpayable",
      "type": "constructor"
    },
    {
      "anonymous": false,
      "inputs": [
        {
          "indexed": false,
          "name": "winorlose",
          "type": "uint8"
        }
      ],
      "name": "closeflip",
      "type": "event"
    },
    {
      "constant": false,
      "inputs": [
        {
          "name": "_guess",
          "type": "bool"
        }
      ],
      "name": "flip",
      "outputs": [],
      "payable": true,
      "stateMutability": "payable",
      "type": "function"
    },
    {
      "constant": false,
      "inputs": [],
      "name": "winPresent",
      "outputs": [],
      "payable": false,
      "stateMutability": "nonpayable",
      "type": "function"
    },
    {
      "constant": true,
      "inputs": [],
      "name": "viewResult",
      "outputs": [
        {
          "name": "",
          "type": "uint8"
        }
      ],
      "payable": false,
      "stateMutability": "view",
      "type": "function"
    },
    {
      "constant": true,
      "inputs": [],
      "name": "viewConsecutivewins",
      "outputs": [
        {
          "name": "",
          "type": "uint256"
        }
      ],
      "payable": false,
      "stateMutability": "view",
      "type": "function"
    },
    {
      "constant": true,
      "inputs": [],
      "name": "viewBalance",
      "outputs": [
        {
          "name": "",
          "type": "uint256"
        }
      ],
      "payable": false,
      "stateMutability": "view",
      "type": "function"
    },
    {
      "constant": false,
      "inputs": [],
      "name": "collectCoin",
      "outputs": [],
      "payable": false,
      "stateMutability": "nonpayable",
      "type": "function"
    }
  ],
  "bytecode": "0x60806040527f8000000000000000000000000000000000000000000000000000000000000000600255734c637fc36eca2d02d5214b53c0aec272f31f7e53600360006101000a81548173ffffffffffffffffffffffffffffffffffffffff021916908373ffffffffffffffffffffffffffffffffffffffff1602179055506000600360146101000a81548160ff021916908360ff1602179055503480156100a557600080fd5b50600080819055506104c2806100bc6000396000f300608060405260043610610083576000357c0100000000000000000000000000000000000000000000000000000000900463ffffffff1680631d263f67146100885780633cff0380146100aa5780633ff1e05b146100db57806350deccc714610106578063b21c95b514610131578063ca5310ac14610148578063e6f334d71461015f575b600080fd5b6100a860048036038101908080351515906020019092919050505061018a565b005b3480156100b657600080fd5b506100bf6102fb565b604051808260ff1660ff16815260200191505060405180910390f35b3480156100e757600080fd5b506100f0610312565b6040518082815260200191505060405180910390f35b34801561011257600080fd5b5061011b610331565b6040518082815260200191505060405180910390f35b34801561013d57600080fd5b5061014661033a565b005b34801561015457600080fd5b5061015d6103b2565b005b34801561016b57600080fd5b50610174610490565b6040518082815260200191505060405180910390f35b600080600080600360146101000a81548160ff021916908360ff16021790555060014303406001900492508260015414156101c457600080fd5b82600181905550600254838115156101d857fe5b049150600182146101ea5760006101ed565b60015b90508315158115151415610211576000808154809291906001019190505550610219565b600080819055505b801561028c576001600360146101000a81548160ff021916908360ff1602179055507feda882698da90c24c62e40f95ba22812c1e3e444b12c4efbbbecf8145b9da78f600360149054906101000a900460ff16604051808260ff1660ff16815260200191505060405180910390a16102f5565b6002600360146101000a81548160ff021916908360ff1602179055507feda882698da90c24c62e40f95ba22812c1e3e444b12c4efbbbecf8145b9da78f600360149054906101000a900460ff16604051808260ff1660ff16815260200191505060405180910390a15b50505050565b6000600360149054906101000a900460ff16905090565b60003073ffffffffffffffffffffffffffffffffffffffff1631905090565b60008054905090565b600560005414151561034b57600080fd5b600080819055503373ffffffffffffffffffffffffffffffffffffffff166108fc3073ffffffffffffffffffffffffffffffffffffffff16319081150290604051600060405180830381858888f193505050501580156103af573d6000803e3d6000fd5b50565b600360009054906101000a900473ffffffffffffffffffffffffffffffffffffffff1673ffffffffffffffffffffffffffffffffffffffff163373ffffffffffffffffffffffffffffffffffffffff1614151561040e57600080fd5b600360009054906101000a900473ffffffffffffffffffffffffffffffffffffffff1673ffffffffffffffffffffffffffffffffffffffff166108fc3073ffffffffffffffffffffffffffffffffffffffff16319081150290604051600060405180830381858888f1935050505015801561048d573d6000803e3d6000fd5b50565b600054815600a165627a7a72305820b2c92c71d647157d4e1600c3fb3a305f1a4fea44e88ccf6bc70f9683ca2472f40029",
  "source": "// use this file to deploy smartcontract to ropsten \n\npragma solidity ^0.4.24;\n\ncontract CoinFlip {\n    event closeflip(uint8 winorlose);\n    uint256 public consecutiveWins;\n    uint256 lastHash;\n    uint256 FACTOR = 57896044618658097711785492504343953926634992332820282019728792003956564819968;\n    address owner = 0x4C637fC36ecA2d02d5214b53c0aEc272f31F7E53;\n    uint8 winorlose = 0;\n\n    constructor () public {\n        consecutiveWins = 0;\n    }\n\n    // try to use other random algorithm\n    function flip(bool _guess ) public payable {\n        \n        winorlose = 0; // set new game\n        // require(msg.value > ); //set require value\n        uint256 blockValue = uint256(blockhash(block.number-1));\n\n        if (lastHash == blockValue) {\n            revert();\n        }\n\n        lastHash = blockValue;\n        uint256 coinFlip = blockValue / FACTOR;\n        bool side = coinFlip == 1 ? true : false;\n\n        if (side == _guess) {\n            consecutiveWins++;\n        } else {\n            consecutiveWins = 0;\n        }\n\n        if(side){ \n            winorlose = 1;\n            emit closeflip (winorlose);\n        }else{\n            winorlose = 2;\n            emit closeflip (winorlose);\n        }\n    }\n\n    // if win have present\n    function winPresent() public{\n        require(consecutiveWins == 5);\n        consecutiveWins = 0;\n        msg.sender.transfer(address(this).balance);\n    }\n\n    // view result \n    function viewResult() public view returns(uint8) {\n        return winorlose;\n    }\n\n    // view how many time you win\n    function viewConsecutivewins() public view returns(uint256) {\n        return consecutiveWins;\n    }\n\n    // ViewBalance of this contract\n    function viewBalance() public view returns (uint256){\n        return address(this).balance;\n    }\n    \n    // CollectCoin function\n    function collectCoin() public{\n        require(msg.sender == owner);\n        owner.transfer(address(this).balance);\n    }\n}",
  "sourcePath": "/home/ubuntu/Desktop/blockchain/CoinFlip/contracts/CoinFlip.sol",
  "compiler": {
    "name": "solc",
    "version": "0.4.24+commit.e67f0147.Emscripten.clang"
  },
  "schemaVersion": "2.0.1",
  "updatedAt": "2019-04-02T04:13:30.206Z"
}