{
  "contractName": "CoinFlip",
  "abi": [
    {
      "constant": true,
      "inputs": [
        {
          "name": "",
          "type": "address"
        }
      ],
      "name": "winNumber",
      "outputs": [
        {
          "name": "",
          "type": "uint256"
        }
      ],
      "payable": false,
      "stateMutability": "view",
      "type": "function"
    },
    {
      "constant": true,
      "inputs": [
        {
          "name": "",
          "type": "address"
        }
      ],
      "name": "winloseNumber",
      "outputs": [
        {
          "name": "",
          "type": "uint256"
        }
      ],
      "payable": false,
      "stateMutability": "view",
      "type": "function"
    },
    {
      "inputs": [],
      "payable": false,
      "stateMutability": "nonpayable",
      "type": "constructor"
    },
    {
      "anonymous": false,
      "inputs": [
        {
          "indexed": false,
          "name": "matchNumber",
          "type": "uint256"
        },
        {
          "indexed": false,
          "name": "winorlose",
          "type": "uint256"
        }
      ],
      "name": "closeflip",
      "type": "event"
    },
    {
      "constant": false,
      "inputs": [
        {
          "name": "_guess",
          "type": "bool"
        }
      ],
      "name": "flip",
      "outputs": [],
      "payable": true,
      "stateMutability": "payable",
      "type": "function"
    },
    {
      "constant": false,
      "inputs": [],
      "name": "winPresent",
      "outputs": [],
      "payable": false,
      "stateMutability": "nonpayable",
      "type": "function"
    },
    {
      "constant": true,
      "inputs": [],
      "name": "viewResult",
      "outputs": [
        {
          "name": "",
          "type": "uint256"
        }
      ],
      "payable": false,
      "stateMutability": "view",
      "type": "function"
    },
    {
      "constant": true,
      "inputs": [],
      "name": "viewConsecutivewins",
      "outputs": [
        {
          "name": "",
          "type": "uint256"
        }
      ],
      "payable": false,
      "stateMutability": "view",
      "type": "function"
    },
    {
      "constant": true,
      "inputs": [],
      "name": "viewBalance",
      "outputs": [
        {
          "name": "",
          "type": "uint256"
        }
      ],
      "payable": false,
      "stateMutability": "view",
      "type": "function"
    },
    {
      "constant": false,
      "inputs": [],
      "name": "collectCoin",
      "outputs": [],
      "payable": false,
      "stateMutability": "nonpayable",
      "type": "function"
    }
  ],
  "bytecode": "0x60806040527f8000000000000000000000000000000000000000000000000000000000000000600355734c637fc36eca2d02d5214b53c0aec272f31f7e53600460006101000a81548173ffffffffffffffffffffffffffffffffffffffff021916908373ffffffffffffffffffffffffffffffffffffffff160217905550600060055534801561008e57600080fd5b5060008060003373ffffffffffffffffffffffffffffffffffffffff1673ffffffffffffffffffffffffffffffffffffffff168152602001908152602001600020819055506000600160003373ffffffffffffffffffffffffffffffffffffffff1673ffffffffffffffffffffffffffffffffffffffff16815260200190815260200160002081905550610783806101276000396000f30060806040526004361061008e576000357c0100000000000000000000000000000000000000000000000000000000900463ffffffff1680631d263f67146100935780633cff0380146100b55780633ff1e05b146100e057806350deccc71461010b5780639cda116414610136578063b21c95b51461018d578063ca5310ac146101a4578063fd06f2f1146101bb575b600080fd5b6100b3600480360381019080803515159060200190929190505050610212565b005b3480156100c157600080fd5b506100ca6104ac565b6040518082815260200191505060405180910390f35b3480156100ec57600080fd5b506100f56104f3565b6040518082815260200191505060405180910390f35b34801561011757600080fd5b50610120610512565b6040518082815260200191505060405180910390f35b34801561014257600080fd5b50610177600480360381019080803573ffffffffffffffffffffffffffffffffffffffff169060200190929190505050610558565b6040518082815260200191505060405180910390f35b34801561019957600080fd5b506101a2610570565b005b3480156101b057600080fd5b506101b9610661565b005b3480156101c757600080fd5b506101fc600480360381019080803573ffffffffffffffffffffffffffffffffffffffff16906020019092919050505061073f565b6040518082815260200191505060405180910390f35b6000806000600560008154809291906001019190505550600143034060019004925082600254141561024357600080fd5b826002819055506003548381151561025757fe5b0491506001821461026957600061026c565b60015b905083151581151514156102cc5760016000803373ffffffffffffffffffffffffffffffffffffffff1673ffffffffffffffffffffffffffffffffffffffff16815260200190815260200160002060008282540192505081905550610311565b60008060003373ffffffffffffffffffffffffffffffffffffffff1673ffffffffffffffffffffffffffffffffffffffff168152602001908152602001600020819055505b80156103e05760018060003373ffffffffffffffffffffffffffffffffffffffff1673ffffffffffffffffffffffffffffffffffffffff168152602001908152602001600020819055507f0b3d14a14fd6aaa64cdf76b0458fcbc05866d7b76343d24eef042d680b91f3e9600554600160003373ffffffffffffffffffffffffffffffffffffffff1673ffffffffffffffffffffffffffffffffffffffff16815260200190815260200160002054604051808381526020018281526020019250505060405180910390a16104a6565b6002600160003373ffffffffffffffffffffffffffffffffffffffff1673ffffffffffffffffffffffffffffffffffffffff168152602001908152602001600020819055507f0b3d14a14fd6aaa64cdf76b0458fcbc05866d7b76343d24eef042d680b91f3e9600554600160003373ffffffffffffffffffffffffffffffffffffffff1673ffffffffffffffffffffffffffffffffffffffff16815260200190815260200160002054604051808381526020018281526020019250505060405180910390a15b50505050565b6000600160003373ffffffffffffffffffffffffffffffffffffffff1673ffffffffffffffffffffffffffffffffffffffff16815260200190815260200160002054905090565b60003073ffffffffffffffffffffffffffffffffffffffff1631905090565b60008060003373ffffffffffffffffffffffffffffffffffffffff1673ffffffffffffffffffffffffffffffffffffffff16815260200190815260200160002054905090565b60006020528060005260406000206000915090505481565b60056000803373ffffffffffffffffffffffffffffffffffffffff1673ffffffffffffffffffffffffffffffffffffffff168152602001908152602001600020541415156105bd57600080fd5b60008060003373ffffffffffffffffffffffffffffffffffffffff1673ffffffffffffffffffffffffffffffffffffffff168152602001908152602001600020819055503373ffffffffffffffffffffffffffffffffffffffff166108fc3073ffffffffffffffffffffffffffffffffffffffff16319081150290604051600060405180830381858888f1935050505015801561065e573d6000803e3d6000fd5b50565b600460009054906101000a900473ffffffffffffffffffffffffffffffffffffffff1673ffffffffffffffffffffffffffffffffffffffff163373ffffffffffffffffffffffffffffffffffffffff161415156106bd57600080fd5b600460009054906101000a900473ffffffffffffffffffffffffffffffffffffffff1673ffffffffffffffffffffffffffffffffffffffff166108fc3073ffffffffffffffffffffffffffffffffffffffff16319081150290604051600060405180830381858888f1935050505015801561073c573d6000803e3d6000fd5b50565b600160205280600052604060002060009150905054815600a165627a7a7230582063b66290f15dcd9a9cf1cbc2bf20724de5a45408e76da92c5de6fa0b34e0c4850029",
  "source": "// use this file to deploy smartcontract to ropsten \n\npragma solidity ^0.4.24;\n\n\ncontract CoinFlip {\n    //add matchNumber to finter match\n\n    event closeflip(uint256 matchNumber, uint winorlose);\n\n    mapping(address => uint) public winNumber;\n    mapping(address => uint) public winloseNumber;\n\n    uint256 lastHash;\n    uint256 FACTOR = 57896044618658097711785492504343953926634992332820282019728792003956564819968;\n    address owner = 0x4C637fC36ecA2d02d5214b53c0aEc272f31F7E53;\n    uint256 matchNumber = 0;\n \n    constructor () public {\n        winNumber[msg.sender] = 0;\n        winloseNumber[msg.sender] = 0;\n    }\n\n    // try to use other random algorithm\n    function flip(bool _guess ) public payable {\n        matchNumber ++ ;\n        // require(msg.value > ); //set require value\n        uint256 blockValue = uint256(blockhash(block.number-1));\n\n        if (lastHash == blockValue) {\n            revert();\n        }\n\n        lastHash = blockValue;\n        uint256 coinFlip = blockValue / FACTOR;\n        bool side = coinFlip == 1 ? true : false;\n\n        if (side == _guess) {\n            winNumber[msg.sender] +=1 ;\n        } else {\n            winNumber[msg.sender] = 0;\n        }\n\n        if(side){ \n            winloseNumber[msg.sender] = 1;\n            emit closeflip (matchNumber,winloseNumber[msg.sender]);\n        }else{\n            winloseNumber[msg.sender] = 2;\n            emit closeflip (matchNumber,winloseNumber[msg.sender]);\n        }\n    }\n\n    // if win have present\n    function winPresent() public{\n        require( winNumber[msg.sender] == 5);\n        winNumber[msg.sender] = 0;\n        msg.sender.transfer(address(this).balance);\n    }\n\n    // view result \n    function viewResult() public view returns(uint) {\n        return winloseNumber[msg.sender];\n    }\n\n    // view how many time you win\n    function viewConsecutivewins() public view returns(uint256) {\n        return winNumber[msg.sender];\n    }\n\n    // ViewBalance of this contract\n    function viewBalance() public view returns (uint256){\n        return address(this).balance;\n    }\n    \n    // CollectCoin function\n    function collectCoin() public{\n        require(msg.sender == owner);\n        owner.transfer(address(this).balance);\n    }\n}",
  "sourcePath": "/home/ubuntu/Desktop/blockchain/CoinFlip/contracts/CoinFlip.sol",
  "compiler": {
    "name": "solc",
    "version": "0.4.24+commit.e67f0147.Emscripten.clang"
  },
  "schemaVersion": "2.0.1",
  "updatedAt": "2019-04-04T01:19:36.681Z"
}