{
  "contractName": "CoinFlip",
  "abi": [
    {
      "constant": true,
      "inputs": [
        {
          "name": "",
          "type": "address"
        }
      ],
      "name": "winNumber",
      "outputs": [
        {
          "name": "",
          "type": "uint256"
        }
      ],
      "payable": false,
      "stateMutability": "view",
      "type": "function"
    },
    {
      "constant": true,
      "inputs": [],
      "name": "consecutiveWins",
      "outputs": [
        {
          "name": "",
          "type": "uint256"
        }
      ],
      "payable": false,
      "stateMutability": "view",
      "type": "function"
    },
    {
      "inputs": [],
      "payable": false,
      "stateMutability": "nonpayable",
      "type": "constructor"
    },
    {
      "anonymous": false,
      "inputs": [
        {
          "indexed": false,
          "name": "matchNumber",
          "type": "uint256"
        },
        {
          "indexed": false,
          "name": "winorlose",
          "type": "uint8"
        }
      ],
      "name": "closeflip",
      "type": "event"
    },
    {
      "constant": false,
      "inputs": [
        {
          "name": "_guess",
          "type": "bool"
        }
      ],
      "name": "flip",
      "outputs": [],
      "payable": true,
      "stateMutability": "payable",
      "type": "function"
    },
    {
      "constant": false,
      "inputs": [],
      "name": "winPresent",
      "outputs": [],
      "payable": false,
      "stateMutability": "nonpayable",
      "type": "function"
    },
    {
      "constant": true,
      "inputs": [],
      "name": "viewResult",
      "outputs": [
        {
          "name": "",
          "type": "uint8"
        }
      ],
      "payable": false,
      "stateMutability": "view",
      "type": "function"
    },
    {
      "constant": true,
      "inputs": [],
      "name": "viewConsecutivewins",
      "outputs": [
        {
          "name": "",
          "type": "uint256"
        }
      ],
      "payable": false,
      "stateMutability": "view",
      "type": "function"
    },
    {
      "constant": true,
      "inputs": [],
      "name": "viewBalance",
      "outputs": [
        {
          "name": "",
          "type": "uint256"
        }
      ],
      "payable": false,
      "stateMutability": "view",
      "type": "function"
    },
    {
      "constant": false,
      "inputs": [],
      "name": "collectCoin",
      "outputs": [],
      "payable": false,
      "stateMutability": "nonpayable",
      "type": "function"
    }
  ],
  "bytecode": "0x60806040527f8000000000000000000000000000000000000000000000000000000000000000600355734c637fc36eca2d02d5214b53c0aec272f31f7e53600460006101000a81548173ffffffffffffffffffffffffffffffffffffffff021916908373ffffffffffffffffffffffffffffffffffffffff1602179055506000600460146101000a81548160ff021916908360ff16021790555060006005553480156100aa57600080fd5b5060008060003373ffffffffffffffffffffffffffffffffffffffff1673ffffffffffffffffffffffffffffffffffffffff16815260200190815260200160002081905550610692806100fe6000396000f30060806040526004361061008e576000357c0100000000000000000000000000000000000000000000000000000000900463ffffffff1680631d263f67146100935780633cff0380146100b55780633ff1e05b146100e657806350deccc7146101115780639cda11641461013c578063b21c95b514610193578063ca5310ac146101aa578063e6f334d7146101c1575b600080fd5b6100b36004803603810190808035151590602001909291905050506101ec565b005b3480156100c157600080fd5b506100ca6103fd565b604051808260ff1660ff16815260200191505060405180910390f35b3480156100f257600080fd5b506100fb610414565b6040518082815260200191505060405180910390f35b34801561011d57600080fd5b50610126610433565b6040518082815260200191505060405180910390f35b34801561014857600080fd5b5061017d600480360381019080803573ffffffffffffffffffffffffffffffffffffffff169060200190929190505050610479565b6040518082815260200191505060405180910390f35b34801561019f57600080fd5b506101a8610491565b005b3480156101b657600080fd5b506101bf610582565b005b3480156101cd57600080fd5b506101d6610660565b6040518082815260200191505060405180910390f35b60008060006005600081548092919060010191905055506000600460146101000a81548160ff021916908360ff160217905550600143034060019004925082600254141561023957600080fd5b826002819055506003548381151561024d57fe5b0491506001821461025f576000610262565b60015b905083151581151514156102c25760016000803373ffffffffffffffffffffffffffffffffffffffff1673ffffffffffffffffffffffffffffffffffffffff16815260200190815260200160002060008282540192505081905550610307565b60008060003373ffffffffffffffffffffffffffffffffffffffff1673ffffffffffffffffffffffffffffffffffffffff168152602001908152602001600020819055505b8015610384576001600460146101000a81548160ff021916908360ff1602179055507feeed0116877fd688948ad53813019d6412cd5d74b83072f7764a5257c7f84564600554600460149054906101000a900460ff16604051808381526020018260ff1660ff1681526020019250505060405180910390a16103f7565b6002600460146101000a81548160ff021916908360ff1602179055507feeed0116877fd688948ad53813019d6412cd5d74b83072f7764a5257c7f84564600554600460149054906101000a900460ff16604051808381526020018260ff1660ff1681526020019250505060405180910390a15b50505050565b6000600460149054906101000a900460ff16905090565b60003073ffffffffffffffffffffffffffffffffffffffff1631905090565b60008060003373ffffffffffffffffffffffffffffffffffffffff1673ffffffffffffffffffffffffffffffffffffffff16815260200190815260200160002054905090565b60006020528060005260406000206000915090505481565b60056000803373ffffffffffffffffffffffffffffffffffffffff1673ffffffffffffffffffffffffffffffffffffffff168152602001908152602001600020541415156104de57600080fd5b60008060003373ffffffffffffffffffffffffffffffffffffffff1673ffffffffffffffffffffffffffffffffffffffff168152602001908152602001600020819055503373ffffffffffffffffffffffffffffffffffffffff166108fc3073ffffffffffffffffffffffffffffffffffffffff16319081150290604051600060405180830381858888f1935050505015801561057f573d6000803e3d6000fd5b50565b600460009054906101000a900473ffffffffffffffffffffffffffffffffffffffff1673ffffffffffffffffffffffffffffffffffffffff163373ffffffffffffffffffffffffffffffffffffffff161415156105de57600080fd5b600460009054906101000a900473ffffffffffffffffffffffffffffffffffffffff1673ffffffffffffffffffffffffffffffffffffffff166108fc3073ffffffffffffffffffffffffffffffffffffffff16319081150290604051600060405180830381858888f1935050505015801561065d573d6000803e3d6000fd5b50565b600154815600a165627a7a72305820da490a85334f92f1dd0e9c1357b2812ee5d46cd4dec73c3f4b6c02fb5e2a3a570029",
  "source": "// use this file to deploy smartcontract to ropsten \n\npragma solidity ^0.4.24;\n\n\ncontract CoinFlip {\n    //add matchNumber to finter match\n\n    event closeflip(uint256 matchNumber, uint8 winorlose);\n\n    mapping(address => uint) public winNumber;\n\n    uint256 public consecutiveWins;\n    uint256 lastHash;\n    uint256 FACTOR = 57896044618658097711785492504343953926634992332820282019728792003956564819968;\n    address owner = 0x4C637fC36ecA2d02d5214b53c0aEc272f31F7E53;\n    uint8 winorlose = 0;\n    uint256 matchNumber = 0;\n \n    constructor () public {\n        winNumber[msg.sender] = 0;\n    }\n\n    // try to use other random algorithm\n    function flip(bool _guess ) public payable {\n        matchNumber ++ ;\n        winorlose = 0; // set new game\n        // require(msg.value > ); //set require value\n        uint256 blockValue = uint256(blockhash(block.number-1));\n\n        if (lastHash == blockValue) {\n            revert();\n        }\n\n        lastHash = blockValue;\n        uint256 coinFlip = blockValue / FACTOR;\n        bool side = coinFlip == 1 ? true : false;\n\n        if (side == _guess) {\n            winNumber[msg.sender] +=1 ;\n        } else {\n            winNumber[msg.sender] = 0;\n        }\n\n        if(side){ \n            winorlose = 1;\n            emit closeflip (matchNumber,winorlose);\n        }else{\n            winorlose = 2;\n            emit closeflip (matchNumber,winorlose);\n        }\n    }\n\n    // if win have present\n    function winPresent() public{\n        require( winNumber[msg.sender] == 5);\n        winNumber[msg.sender] = 0;\n        msg.sender.transfer(address(this).balance);\n    }\n\n    // view result \n    function viewResult() public view returns(uint8) {\n        return winorlose;\n    }\n\n    // view how many time you win\n    function viewConsecutivewins() public view returns(uint256) {\n        return winNumber[msg.sender];\n    }\n\n    // ViewBalance of this contract\n    function viewBalance() public view returns (uint256){\n        return address(this).balance;\n    }\n    \n    // CollectCoin function\n    function collectCoin() public{\n        require(msg.sender == owner);\n        owner.transfer(address(this).balance);\n    }\n}",
  "sourcePath": "/home/ubuntu/Desktop/blockchain/CoinFlip/contracts/CoinFlip.sol",
  "compiler": {
    "name": "solc",
    "version": "0.4.24+commit.e67f0147.Emscripten.clang"
  },
  "schemaVersion": "2.0.1",
  "updatedAt": "2019-04-03T09:13:25.120Z"
}