{
  "contractName": "CoinFlip",
  "abi": [
    {
      "constant": true,
      "inputs": [],
      "name": "consecutiveWins",
      "outputs": [
        {
          "name": "",
          "type": "uint256"
        }
      ],
      "payable": false,
      "stateMutability": "view",
      "type": "function"
    },
    {
      "inputs": [],
      "payable": false,
      "stateMutability": "nonpayable",
      "type": "constructor"
    },
    {
      "anonymous": false,
      "inputs": [
        {
          "indexed": false,
          "name": "matchNumber",
          "type": "uint256"
        },
        {
          "indexed": false,
          "name": "winorlose",
          "type": "uint8"
        }
      ],
      "name": "closeflip",
      "type": "event"
    },
    {
      "constant": false,
      "inputs": [
        {
          "name": "_guess",
          "type": "bool"
        }
      ],
      "name": "flip",
      "outputs": [],
      "payable": true,
      "stateMutability": "payable",
      "type": "function"
    },
    {
      "constant": false,
      "inputs": [],
      "name": "winPresent",
      "outputs": [],
      "payable": false,
      "stateMutability": "nonpayable",
      "type": "function"
    },
    {
      "constant": true,
      "inputs": [],
      "name": "viewResult",
      "outputs": [
        {
          "name": "",
          "type": "uint8"
        }
      ],
      "payable": false,
      "stateMutability": "view",
      "type": "function"
    },
    {
      "constant": true,
      "inputs": [],
      "name": "viewConsecutivewins",
      "outputs": [
        {
          "name": "",
          "type": "uint256"
        }
      ],
      "payable": false,
      "stateMutability": "view",
      "type": "function"
    },
    {
      "constant": true,
      "inputs": [],
      "name": "viewBalance",
      "outputs": [
        {
          "name": "",
          "type": "uint256"
        }
      ],
      "payable": false,
      "stateMutability": "view",
      "type": "function"
    },
    {
      "constant": false,
      "inputs": [],
      "name": "collectCoin",
      "outputs": [],
      "payable": false,
      "stateMutability": "nonpayable",
      "type": "function"
    }
  ],
  "bytecode": "0x60806040527f8000000000000000000000000000000000000000000000000000000000000000600255734c637fc36eca2d02d5214b53c0aec272f31f7e53600360006101000a81548173ffffffffffffffffffffffffffffffffffffffff021916908373ffffffffffffffffffffffffffffffffffffffff1602179055506000600360146101000a81548160ff021916908360ff16021790555060006004553480156100aa57600080fd5b50600080819055506104e9806100c16000396000f300608060405260043610610083576000357c0100000000000000000000000000000000000000000000000000000000900463ffffffff1680631d263f67146100885780633cff0380146100aa5780633ff1e05b146100db57806350deccc714610106578063b21c95b514610131578063ca5310ac14610148578063e6f334d71461015f575b600080fd5b6100a860048036038101908080351515906020019092919050505061018a565b005b3480156100b657600080fd5b506100bf610322565b604051808260ff1660ff16815260200191505060405180910390f35b3480156100e757600080fd5b506100f0610339565b6040518082815260200191505060405180910390f35b34801561011257600080fd5b5061011b610358565b6040518082815260200191505060405180910390f35b34801561013d57600080fd5b50610146610361565b005b34801561015457600080fd5b5061015d6103d9565b005b34801561016b57600080fd5b506101746104b7565b6040518082815260200191505060405180910390f35b60008060006004600081548092919060010191905055506000600360146101000a81548160ff021916908360ff16021790555060014303406001900492508260015414156101d757600080fd5b82600181905550600254838115156101eb57fe5b049150600182146101fd576000610200565b60015b9050831515811515141561022457600080815480929190600101919050555061022c565b600080819055505b80156102a9576001600360146101000a81548160ff021916908360ff1602179055507feeed0116877fd688948ad53813019d6412cd5d74b83072f7764a5257c7f84564600454600360149054906101000a900460ff16604051808381526020018260ff1660ff1681526020019250505060405180910390a161031c565b6002600360146101000a81548160ff021916908360ff1602179055507feeed0116877fd688948ad53813019d6412cd5d74b83072f7764a5257c7f84564600454600360149054906101000a900460ff16604051808381526020018260ff1660ff1681526020019250505060405180910390a15b50505050565b6000600360149054906101000a900460ff16905090565b60003073ffffffffffffffffffffffffffffffffffffffff1631905090565b60008054905090565b600560005414151561037257600080fd5b600080819055503373ffffffffffffffffffffffffffffffffffffffff166108fc3073ffffffffffffffffffffffffffffffffffffffff16319081150290604051600060405180830381858888f193505050501580156103d6573d6000803e3d6000fd5b50565b600360009054906101000a900473ffffffffffffffffffffffffffffffffffffffff1673ffffffffffffffffffffffffffffffffffffffff163373ffffffffffffffffffffffffffffffffffffffff1614151561043557600080fd5b600360009054906101000a900473ffffffffffffffffffffffffffffffffffffffff1673ffffffffffffffffffffffffffffffffffffffff166108fc3073ffffffffffffffffffffffffffffffffffffffff16319081150290604051600060405180830381858888f193505050501580156104b4573d6000803e3d6000fd5b50565b600054815600a165627a7a7230582029308670beaee7e548cc419a52e2d76f834faef57e1ad72a9cb354ec2a8f685d0029",
  "source": "// use this file to deploy smartcontract to ropsten \n\npragma solidity ^0.4.24;\n\ncontract CoinFlip {\n    //add matchNumber to finter match\n    event closeflip(uint256 matchNumber, uint8 winorlose);\n    uint256 public consecutiveWins;\n    uint256 lastHash;\n    uint256 FACTOR = 57896044618658097711785492504343953926634992332820282019728792003956564819968;\n    address owner = 0x4C637fC36ecA2d02d5214b53c0aEc272f31F7E53;\n    uint8 winorlose = 0;\n    uint256 matchNumber = 0;\n\n    constructor () public {\n        consecutiveWins = 0;\n    }\n\n    // try to use other random algorithm\n    function flip(bool _guess ) public payable {\n        matchNumber ++ ;\n        winorlose = 0; // set new game\n        // require(msg.value > ); //set require value\n        uint256 blockValue = uint256(blockhash(block.number-1));\n\n        if (lastHash == blockValue) {\n            revert();\n        }\n\n        lastHash = blockValue;\n        uint256 coinFlip = blockValue / FACTOR;\n        bool side = coinFlip == 1 ? true : false;\n\n        if (side == _guess) {\n            consecutiveWins++;\n        } else {\n            consecutiveWins = 0;\n        }\n\n        if(side){ \n            winorlose = 1;\n            emit closeflip (matchNumber,winorlose);\n        }else{\n            winorlose = 2;\n            emit closeflip (matchNumber,winorlose);\n        }\n    }\n\n    // if win have present\n    function winPresent() public{\n        require(consecutiveWins == 5);\n        consecutiveWins = 0;\n        msg.sender.transfer(address(this).balance);\n    }\n\n    // view result \n    function viewResult() public view returns(uint8) {\n        return winorlose;\n    }\n\n    // view how many time you win\n    function viewConsecutivewins() public view returns(uint256) {\n        return consecutiveWins;\n    }\n\n    // ViewBalance of this contract\n    function viewBalance() public view returns (uint256){\n        return address(this).balance;\n    }\n    \n    // CollectCoin function\n    function collectCoin() public{\n        require(msg.sender == owner);\n        owner.transfer(address(this).balance);\n    }\n}",
  "sourcePath": "/home/ubuntu/Desktop/blockchain/CoinFlip/contracts/CoinFlip.sol",
  "compiler": {
    "name": "solc",
    "version": "0.4.24+commit.e67f0147.Emscripten.clang"
  },
  "schemaVersion": "2.0.1",
  "updatedAt": "2019-04-02T07:56:09.217Z"
}